{
  "transactions": [
    {
      "hash": "0x7dadcee17aa2f779792b6ad5cfda03e68bb66aef44c9229a73b0787c96f79413",
      "transactionType": "CALL",
      "contractName": null,
      "contractAddress": "0x779877a7b0d9e8603169ddbd7836e478b4624789",
      "function": "transferAndCall(address,uint256,bytes)",
      "arguments": [
        "0x9DdfaCa8183c41ad55329BdeeD9F6A8d53168B1B",
        "3000000000000000000",
        "0xe009da0234d9174f489e69cca47a75d5573127d94544e648dd08a8c46498118c"
      ],
      "transaction": {
        "from": "0xc6edd10e757f88da71de403bb5f8de15538e6c17",
        "to": "0x779877a7b0d9e8603169ddbd7836e478b4624789",
        "gas": "0x1c1ff",
        "value": "0x0",
        "input": "0x4000aea00000000000000000000000009ddfaca8183c41ad55329bdeed9f6a8d53168b1b00000000000000000000000000000000000000000000000029a2241af62c000000000000000000000000000000000000000000000000000000000000000000600000000000000000000000000000000000000000000000000000000000000020e009da0234d9174f489e69cca47a75d5573127d94544e648dd08a8c46498118c",
        "nonce": "0x38",
        "chainId": "0xaa36a7"
      },
      "additionalContracts": [],
      "isFixedGasLimit": false
    }
  ],
  "receipts": [
    {
      "status": "0x1",
      "cumulativeGasUsed": "0x12d4f97",
      "logs": [
        {
          "address": "0x779877a7b0d9e8603169ddbd7836e478b4624789",
          "topics": [
            "0xddf252ad1be2c89b69c2b068fc378daa952ba7f163c4a11628f55a4df523b3ef",
            "0x000000000000000000000000c6edd10e757f88da71de403bb5f8de15538e6c17",
            "0x0000000000000000000000009ddfaca8183c41ad55329bdeed9f6a8d53168b1b"
          ],
          "data": "0x00000000000000000000000000000000000000000000000029a2241af62c0000",
          "blockHash": "0xc4389e758f47d838248e9694ec1c3029560483beb98df00d7ec4debdbec5471e",
          "blockNumber": "0x8327e4",
          "blockTimestamp": "0x685652ac",
          "transactionHash": "0x7dadcee17aa2f779792b6ad5cfda03e68bb66aef44c9229a73b0787c96f79413",
          "transactionIndex": "0x65",
          "logIndex": "0x5d",
          "removed": false
        },
        {
          "address": "0x779877a7b0d9e8603169ddbd7836e478b4624789",
          "topics": [
            "0xe19260aff97b920c7df27010903aeb9c8d2be5d310a2c67824cf3f15396e4c16",
            "0x000000000000000000000000c6edd10e757f88da71de403bb5f8de15538e6c17",
            "0x0000000000000000000000009ddfaca8183c41ad55329bdeed9f6a8d53168b1b"
          ],
          "data": "0x00000000000000000000000000000000000000000000000029a2241af62c000000000000000000000000000000000000000000000000000000000000000000400000000000000000000000000000000000000000000000000000000000000020e009da0234d9174f489e69cca47a75d5573127d94544e648dd08a8c46498118c",
          "blockHash": "0xc4389e758f47d838248e9694ec1c3029560483beb98df00d7ec4debdbec5471e",
          "blockNumber": "0x8327e4",
          "blockTimestamp": "0x685652ac",
          "transactionHash": "0x7dadcee17aa2f779792b6ad5cfda03e68bb66aef44c9229a73b0787c96f79413",
          "transactionIndex": "0x65",
          "logIndex": "0x5e",
          "removed": false
        },
        {
          "address": "0x9ddfaca8183c41ad55329bdeed9f6a8d53168b1b",
          "topics": [
            "0x1ced9348ff549fceab2ac57cd3a9de38edaaab274b725ee82c23e8fc8c4eec7a",
            "0xe009da0234d9174f489e69cca47a75d5573127d94544e648dd08a8c46498118c"
          ],
          "data": "0x000000000000000000000000000000000000000000000000000000000000000000000000000000000000000000000000000000000000000029a2241af62c0000",
          "blockHash": "0xc4389e758f47d838248e9694ec1c3029560483beb98df00d7ec4debdbec5471e",
          "blockNumber": "0x8327e4",
          "blockTimestamp": "0x685652ac",
          "transactionHash": "0x7dadcee17aa2f779792b6ad5cfda03e68bb66aef44c9229a73b0787c96f79413",
          "transactionIndex": "0x65",
          "logIndex": "0x5f",
          "removed": false
        }
      ],
      "logsBloom": "0x00000004000000000010000000000000000000000020000000000000020000000000000000000000000000000000000000000000000000000000000000000000000000000000000000000008000000000000000000000000000020000020000008000000000000000000000000000002000000000000000000000010000040000000000000000000000000010000800000000020000000000000000004000000000000000000000000000000810000000000000000000000000004000000000000000002000000000800000000000000000000000000080100000000000000000010000000000000800000000000000000000000000000000000000000000000",
      "type": "0x2",
      "transactionHash": "0x7dadcee17aa2f779792b6ad5cfda03e68bb66aef44c9229a73b0787c96f79413",
      "transactionIndex": "0x65",
      "blockHash": "0xc4389e758f47d838248e9694ec1c3029560483beb98df00d7ec4debdbec5471e",
      "blockNumber": "0x8327e4",
      "gasUsed": "0x133b1",
      "effectiveGasPrice": "0x1957e3",
      "from": "0xc6edd10e757f88da71de403bb5f8de15538e6c17",
      "to": "0x779877a7b0d9e8603169ddbd7836e478b4624789",
      "contractAddress": null
    }
  ],
  "libraries": [],
  "pending": [],
  "returns": {},
  "timestamp": 1750487725,
  "chain": 11155111,
  "commit": "b8d014c"
}